:1000000000001020CD010000C1000000C30000006E
:1000100003010000030100000301000003010000D0
:10002000030100000301000003010000C5000000FF
:100030000301000003010000C7000000C900000028
:10004000CB000000CD000000CF000000D100000078
:10005000D3000000D5000000D7000000D900000048
:10006000DB000000DD000000DF000000E100000018
:10007000E3000000E5000000E7000000E9000000E8
:10008000EB000000FD000000FF0000000101000087
:100090003B01000023010000ED000000F100000022
:1000A000EF0000002F010000F5000000F300000049
:1000B000F9000000F7000000FB0000000301000051
:1000C0007047704770477047704770477047704778
:1000D0007047704770477047704770477047704768
:1000E0007047704770477047704770477047704758
:1000F0007047704770477047704770477047704748
:10010000704770474368DB07FCD40160704710B547
:1001100080203521C005FFF7F5FFFEE70123C3600E
:10012000704710B58020C005FFF7F8FF10BD10B56F
:100130008020C005FFF7F2FF10BD10B58020C0057C
:10014000FFF7ECFF10BD4B68002B00D001238A683D
:10015000002A01D002221343CA68002A01D00422D7
:1001600013430A69002A01D0082213434A69002A6E
:1001700001D0102213438A69002A01D020221343A0
:10018000002282600A6802618360436830221000A6
:1001900018401A4200D00120704710B5094B802248
:1001A00092031A60084910230B6001224A60002361
:1001B0008B60CA600B614A618B618020C005FFF7CC
:1001C000C2FF10BD00E100E00000002010B50B4AA6
:1001D0000B4B9A4207D00A4B084A01E002CA02C3FD
:1001E00008498B42FAD3084B01E0002204C3074AB6
:1001F0009342FAD3FFF7D1FFFFF789FF1002000007
:100200000000002000000020000000201C00002052
:04000003000001CD2B
:00000001FF
