:10000000000010206D020000C7000000C9000000C1
:1000100009010000090100000901000009010000B8
:10002000090100000901000009010000CB000000E7
:100030000901000009010000CD000000CF00000010
:10004000D1000000D3000000D5000000D700000060
:10005000D9000000DB000000DD000000DF00000030
:10006000E1000000E3000000E5000000E700000000
:10007000E9000000EB000000ED000000EF000000D0
:10008000F1000000BB0200000301000005010000B8
:100090000701000093010000F3000000F7000000DA
:1000A000F5000000F9000000FB000000AF010000B7
:1000B000FF000000FD000000010100000901000038
:1000C0007047704770477047704770477047704778
:1000D0007047704770477047704770477047704768
:1000E0007047704770477047704770477047704758
:1000F0007047704770477047704770477047704748
:1001000070477047704770477047816070470123A0
:10011000C36070470B68012B0BD000234A68012A8B
:1001200009D08A68012A08D0CA68012A08D0036069
:1001300070470823F2E71343F3E701321343F3E771
:1001400001321343F3E710B50148FFF7E0FF10BD9C
:100150000020004010B584B00A4B802292021A6041
:10016000012300930193002302930393064C6946F5
:100170002000FFF7CFFFFA212000FFF7C6FF04B0F1
:1001800010BDC04600E100E0002000400123C36034
:10019000704710B58020C005FFF7F8FF014B012222
:1001A0001A6010BDAC0900200223C360704710B56F
:1001B0000348FFF7F9FF034B01225A6010BDC04608
:1001C00000400040AC090020F8B505000F00140005
:1001D0001E00102000F07CF8002815D00023C3601A
:1001E0000760047186602B68002B11D01A79A24237
:1001F00010D01A00DB68002B10D01979A142F8D179
:10020000074800F0BBFB0AE0064800F055FB06E09B
:10021000286004E0024800F0B1FB00E0D060F8BDC7
:10022000E8930000BC93000010B5FFF793FF0B4C60
:1002300008340B4B00220A212000FFF7C5FF094BB1
:10024000012206212000FFF7BFFF074B02220C21ED
:100250002000FFF7B9FF002010BDC046AC09002008
:10026000C1000000C3000000C500000010B5FFF78A
:10027000DBFFFEE7F8B507000468002C1CD0002562
:1002800008E0E6683E60200000F02CF8340001E051
:100290002500E468002C0FD02368013B2360002B6D
:1002A000F6D1A3689847002DEBD0E668EE602000F9
:1002B00000F018F83400EDE7F8BD10B5FFF743FF84
:1002C00002480830FFF7D6FF10BDC046AC09002039
:1002D00010B5034B0100186800F00EF810BDC046C1
:1002E0001004002010B5034B0100186803F0D8FD7E
:1002F00010BDC04610040020F0B54E464546DE460F
:100300005746E0B50D000B35060083B0162D22D8F8
:10031000102900D9B2E000F0B1FA1025182302200C
:10032000CC4FFB181A005C68083A944200D1B5E043
:10033000032362689A431300E268A168CA6091606F
:100340000122E318596830000A435A6000F09EFA0F
:100350002000083095E007239D4300D58EE0A94298
:1003600000D98BE000F08AFAFC235B009D4200D2AA
:10037000A7E1680A00D18BE0042800D97AE138238C
:100380009846A80980443930C100B24F79184C68AA
:100390000839A1420ED003239C4604E0002ACBDAA0
:1003A000E468A14206D06246636893435A1B0F2A51
:1003B000F4DD40463A003C690832944200D178E0CE
:1003C00003236168994389460B00491B0F2900DD0F
:1003D0007BE17A613A610029B2DA8022920091458C
:1003E00000D30FE15909DA0801238B40D200796864
:1003F000D2190B4391687B60E260A1609460CC608D
:10040000012182109140994259D80B4205D1032213
:100410009043490004300B42FBD003239846C300AD
:100420009946B944CC4682466346DC68A44507D168
:100430002CE1002A00DB35E1E468A44500D125E188
:100440004246636893435A1B0F2AF2DD012080461F
:10045000611905436560A068E5680837C560A86054
:1004600040461043F960B9604860CF6030008F604B
:10047000E25000F00BFA2000083002E00C230020CC
:10048000336003B0F0BCBB46B246A946A046F0BDFF
:1004900080213F2340209846890076E7DC680230BF
:1004A000A34200D044E73A003C690832944200D0AD
:1004B00086E701217B68821091409942A5D90323E8
:1004C000BC6862689A439146954203D8531B0F2B30
:1004D00000DD89E023004B445F4A01935F4B934664
:1004E0001B681268EB18013200D13DE15C4A94466A
:1004F00063441B0B1B0300933000009900F048FA83
:1005000003008046013300D1FAE0019B834200D909
:10051000F4E0544B00981A009A461268030094467F
:10052000514663440B6001991A00414500D151E1E5
:100530005B461B68013300D156E1434601995B1AC3
:100540009A1853461A600723424641461A400192C0
:10055000194200D112E108239846881A424B0099AB
:10056000804441449B1A5B1A1B051B0D009130000F
:1005700019009B4600F00CFA431C00D150E14346A1
:10058000C01A03005B440093534652461B68012186
:100590005B44136042464046BA60009A0A43426098
:1005A000BC4200D124E14A460F2A00D822E10720AC
:1005B0000C3A824360680140052011436160A11834
:1005C000486088600F2A00D935E1424644465268A7
:1005D00026490868984200D20B602549086898426D
:1005E00000D38FE00B608DE00122290013431143FB
:1005F000651961603000BD606B6000F047F9200054
:1006000008303EE75A0A042A72D9142A00D9C5E0F4
:1006100011005C325B31D20008235B429C46BA1861
:10062000944463469A6803239846944500D19EE01B
:10063000434651689943494502D992689445F7D198
:10064000D3689C467B686146A260E1608C60D460A0
:10065000D6E6C0460000002008040020E80900207B
:100660000F100000B809002008100000E009002069
:10067000E4090020142852D9542800D996E06E23AA
:100680009846280B80446F30C1007EE608239B46C5
:10069000073BDC449B46DA4443465246134200D0B3
:1006A000C2E64CE00122E318596830000A435A6060
:1006B000E368A268D3609A6000F0E8F82000083090
:1006C000DFE62B00E80808332AE6012360191D4302
:1006D000656078613861C26082601A004B460A43E7
:1006E00042603000E15000F0D1F820000830C8E648
:1006F0009A09110039323831D2008DE7BC4260D0FE
:10070000BC68626803239A43531B954202D80F2B9F
:1007100000DD69E7300000F0B9F80020B1E65B23A6
:10072000984680445C30C1002FE608235B429C461B
:10073000E1444B469B6801384B4500D098E0434666
:100740000342F2D17B688B437B604900994200D918
:10075000B5E6002904D1B2E6042294464900E244F9
:100760000B42F9D050465AE610330093C4E6891084
:10077000023B8B4079680B437B6064E7009B300051
:1007800043445B421B051B0D19009B4600F000F91A
:10079000431C00D0F3E600239B46F5E6542A2BD8F1
:1007A0001A0B11006F326E31D20035E7AA235B00BD
:1007B00098422BD8DD3B9846E80B80447830C10046
:1007C000E3E52C4B009A9A461B689C4653466244CC
:1007D0001A60ADE6090500D0AAE60200BC684A44EA
:1007E00001310A436260F3E65B4642461A60AAE6BC
:1007F0004446EDE641608DE7AA2149008A4224D8AB
:10080000DA0B110078327731D20005E71A4B9842A3
:1008100024D87C239846A80C80447D30C100B4E5E0
:10082000009A019B94464246083B63449B1A0093FE
:1008300000239B46A8E621003000083103F030FB7E
:100840005346BC681B686268C2E60B498A420BD8F3
:100850009A0C11007D327C31D200DDE6FE217E2330
:100860007F209846890090E5FE227E219200D3E603
:100870007B686AE7B80900205405000010B50248FB
:1008800003F0C2FD10BDC046000A002010B50248AA
:1008900003F0C2FD10BDC046000A00200EB400B532
:1008A00082B003AB04CB8168019300F0B1F802B0D1
:1008B00008BC03B01847C0460FB400B5064983B062
:1008C00004AB086804CB8168019300F0A1F803B081
:1008D00008BC04B01847C0461004002030B505001D
:1008E00089B008000C0000F065F804AB214A0193C0
:1008F0000223069201220293AB6B0590013004940F
:100900000792AC680390002B2BD0636EDB0724D4D6
:10091000A2890C23E15E93051CD580239B011A421A
:1009200005D10B43626EA381134B1340636628000D
:10093000210001AA03F096FB431E98410A25636E2D
:1009400040420543DB0702D4A3899B050DD528004F
:1009500009B030BDA06D03F057FD0C23E15EA28904
:10096000DBE7280003F012F9CFE7A06D03F054FD98
:10097000EDE7C04608940000FFDFFFFF10B5034B12
:1009800001001868FFF7AAFF10BDC0461004002040
:10099000002370B5064D040008002B6008F0F6FC3B
:1009A000431C00D070BD2B68002BFBD02360F9E7FF
:1009B000100A002010B583070AD00300032102E0CB
:1009C00001330B4205D01A78002AF9D1181A10BD4C
:1009D000030019680C4A0D4C8A188A4322420FD131
:1009E0005968094A04338A188A43224208D159684F
:1009F000054A04338A188A432242F1D000E00133C9
:100A00001A78002AFBD1E1E7FFFEFEFE808080809D
:100A1000F0B5DE464E4645465746E0B5D7B083466C
:100A2000894690461C000F9303F0DCFC0368180015
:100A30001C93FFF7BFFF5B461B90002B03D09B6B03
:100A4000002B00D15AE24B465B6EDB0700D5B3E0CA
:100A50004B460C21595E4B469B899A0500D4A7E072
:100A600080229201134209D10A434B4649469A819A
:100A7000496EDE4B0B4049464B6693B21A0746D58A
:100A80004A461269002A42D01A221A400A2A4CD039
:100A90002DAB2A93002300242C932B931593002332
:100AA00046461693179400231D931E931A931F9383
:100AB000209309933378C8462DAF002B00D123E152
:100AC000340003E063780134002B5BD0252BF9D18F
:100AD000A51BB4425AD12378002B00D114E1631C2A
:100AE000069300231CAAD3760122524208920022C8
:100AF00063785D4614000A92069A013206921A0043
:100B0000203A5A2A69D8BA4992008A5897464946E3
:100B1000584601F0F1FD4B46002801D001F038FCA9
:100B20001A229B891A400A2AB2D14A460E21525EE5
:100B3000002AADDB4A46526ED20703D49B0501D48E
:100B400001F01BFA230042464946584601F08EFD4B
:100B5000099000F0A7FC280003F044FC436818004B
:100B60002093FFF727FF81461F90280003F03AFCEF
:100B700083681A934B46002B01D000F054FE069B6D
:100B80001B78B9E7A51BB44200D1BDE02C9B3E60A9
:100B90005B192C932B9B7D60069301332B93072BC2
:100BA00010DC0837099B9C46AC446346099392E7E6
:100BB0004B46986D03F028FC4B460C21595E4B4682
:100BC0009B894DE7414658462AAA04F09DFE00281D
:100BD00001D001F0A0FC2DAFE4E7A246AB46129392
:100BE000002B00D190E03DAE337000231CAAD376D9
:100BF00000220E92013201330B9200220793002350
:100C000008921892139214920222514611401091A8
:100C100051460A4202D0079A023207928422514674
:100C20001140119151460A4205D10A9A0799541A66
:100C3000002C00DDCDE02C9C002B11D01CAA1B2326
:100C4000944663443B6001237B602B9B01341993E2
:100C500001332C942B93072B01DD00F059FC08374E
:100C6000109B002B0ED023AB3B6002237B602B9BA1
:100C70000234109301332C942B93072B01DD00F0E9
:100C80003CFC0837119B802B00D173E3089B0B9A27
:100C90009D1A002D00DDADE35346DB0500D50EE3C4
:100CA0000B9B3E609C467B602B9B64440893013306
:100CB0002C942B93072B00DD15E1083753465B0777
:100CC00006D50A9B079A9E1A002E01DD00F02BFC28
:100CD0000A9B079A934200DA1300099A94469C44AF
:100CE00063460993002C00D0C1E300232B930E9B95
:100CF000002B03D058460E9903F0D2F8069E2DAF74
:100D00003378002B00D0DBE62C9BC1460693002BEA
:100D100001D001F046F800232B93B7E3303B0020CD
:100D20001A000699830018180B001B784000101851
:100D30001A00303A0131092AF4D906910A90DEE608
:100D400012930723A2460F9CAB4607349C43220014
:100D500018CA16931794169B179C0F921D00012218
:100D60006400640828002100224B524208F002FA75
:100D7000002801D000F098FD0122280021001D4B21
:100D8000524206F0B1FB002801D000F08DFD16980C
:100D900017990022002306F09DFB002801D000F0E7
:100DA000FBFF1CABDB7E129A472A01DC00F0E1FF5F
:100DB000114E8022514691437D3A079200228A4685
:100DC0000E9203320B920022089218921392149200
:100DD00068E12C9A2B9B094D102C31DD102189469E
:100DE00039004746B0465E460EE0C046FFDFFFFFD3
:100DF00050940000FFFFEF7F10940000BC950000AE
:100E0000103C0831102C17DD4846103201330D60BC
:100E100048602C922B93072BF2DD390030002AAA70
:100E200004F072FD002801D000F0E5FE103C2C9A81
:100E30002B9B2DA9102CE7DCB3464646B8460F0085
:100E40007C600133A4183D602C942B93072B01DDAB
:100E500000F0C3FE1CABDB7E0837EDE6159B3E6061
:100E6000012B01DC00F01DFC01237B602B9B013476
:100E70005D1C2C9408932B95072D01DD00F093FE4B
:100E800008371C9B01353B601B9B2B959C4664449B
:100E90007B602C94072D01DD00F092FE08370022C4
:100EA00016981799002306F00FFB002801D000F0D8
:100EB00016FC159B0136013BE41801353E607B6052
:100EC0002C942B95072D01DD00F0FCFB083726AB99
:100ED0003B601E9B01359C4664447B602C942B95A3
:100EE000072D00DCE9E6414658462AAA04F00CFD2D
:100EF000002800D0C3E22C9C2DAFDFE6584602F05C
:100F000045FEA0E520231C43069B1B78F4E51293C5
:100F10000023A2460F9C1CAA40CCAB46D376002EE1
:100F200001D100F00BFE089A531C01D100F09CFE89
:100F30000021300003F014FB0E90002801D101F0D5
:100F4000BDF90E9B991BCA43D2170B911140002289
:100F50001CABDB7E07910F940E92089218921392AD
:100F600014929FE0A2460F9C129308CC3DAE3370C2
:100F700000231CAAAB46D3760F9439E60F9A08CA11
:100F80000A93002B01DB00F015FC0A9B0F925B42D9
:100F90000A9304231C43069B1B78ADE52B231CAA54
:100FA000D376069B1B78A7E580231C43069B1B7802
:100FB000A2E5069B581C1B782A2B01D101F01DFBD2
:100FC0001A000021303A84460891092A01D901F01B
:100FD000AFF900206146830018180B001B78400011
:100FE00080181A00303A0131092AF4D90691089084
:100FF00085E501231C43069B1B787DE51CABDB7E4E
:10100000002B00D0BBE520231CAAD376069B1B78BF
:1010100072E5069B1B78682B01D100F080FD402211
:10102000144369E5A2461293102453462343AB466A
:101030001C00A30600D48FE307220F9B07339343C2
:1010400019000CC90C920D9301230F9100221CA9C9
:10105000CA760898421C00D1C6E080222100914344
:101060008A460C990D9A0D00154300D0BBE000286C
:1010700001D000F0EAFD002B62D101331A002240BA
:101080000B9256AE234200D0C4E3089A0B991CABD6
:10109000DB7E07928A4200DA079100220E921892B4
:1010A00013921492002B00D1AEE5079A01320792F9
:1010B000AAE52200129310231A43AB4692465346E8
:1010C0009B0600D43DE307230F9C07349C4322007A
:1010D00018CA0C930D940F925346CB4C23401C001E
:1010E0000023B3E708231C43069B1B7804E522007A
:1010F000129310231A43AB46924653469B0600D4E4
:1011000035E307230F9C07349C4301339C46A444DA
:10111000634622680F9363680C920D93002B00DAEC
:1011200031E3089B544601330FD080239C430C9A33
:101130000D9B1100194308D1089B002B0BD1A2462F
:10114000002356AE08930B939FE70C9A0D9B002B40
:1011500078D1092A76D863220C9B3DA930338B5471
:1011600001230B931CABE7269C46A24666448CE702
:101170000F9BA24604CB02240C9200220D925246F1
:1011800030212243140023AA117048315170782273
:101190000F939E4BAB461D931292022356E72300FA
:1011A000AB469B0600D550E32300DB0601D500F0DB
:1011B00053FD23005B0601D500F00BFE23009B05C9
:1011C00001D400F049FD0F9C099A08CC069E1A70C4
:1011D0000F9495E5069B1B786C2B01D100F097FCD2
:1011E0001022144388E45446012BAED056AE022B95
:1011F00000D166E10723A146BA469C460C9A0D9B96
:101200005F07D5086146D8082F4303003800114016
:1012100034003031013E3A0031701843F0D12500DE
:101220004C4657460C920D93E20743D5302941D0E6
:101230003023013E023D337056AB5B1BCA462E0085
:101240000B9322E780250023ED002540BA46A946EE
:1012500007941F000C9C0D9D56AE0BE00A22002344
:101260002000290006F05EF9002D01D100F080FF7A
:1012700004000D000A2200232000290006F052F984
:101280004B46013E303232700137002BE6D01A9BBC
:101290001B789F42E2D1FF2FE0D0002D01D000F05B
:1012A00060FC092C01D900F05CFC159757460C94A2
:1012B0000D95079C56AB9B1BA2460B93E5E6129B34
:1012C000652B00DCCAE5169817990022002306F06A
:1012D000FBF8002800D15FE14D4B01343B60012356
:1012E0007B602B9B2C94089301332B93072B01DD00
:1012F00000F090FC0837249B159A934200DB4FE2E4
:101300001C9B3B601B9B9C467B602B9B644408930F
:1013100001332C942B93072B01DD00F003FC0837DD
:10132000159B5D1E002D00DCC8E43A4A2B9B9146BC
:10133000102D01DC00F07CFC220010264C4605E05C
:101340000837103D102D01DC00F070FC1032013325
:101350003C607E602C922B93072BF1DD4146584672
:101360002AAA04F0D1FA002800D088E02C9A2B9BFE
:101370002DAFE6E70A9B079A9D1A002D00DC85E455
:10138000244A2B9B9146102D23DD22004C46B1466A
:101390005E4603E0103D0837102D16DD1021103297
:1013A00001333C6079602C922B93072BF2DD414690
:1013B00030002AAA04F0A8FA002800D0E9E0103D85
:1013C0002C9A2B9B2DAF102DE8DCB3464E46A14640
:1013D00014004A46641901333A607D602C942B93C3
:1013E000072B00DD4FE3089B0B9A08379D1A002D51
:1013F00000DC51E4074A2B9B9146102D2BDD220087
:101400004C46B1465E460BE0FFFBFFFF1C9400001C
:101410004C940000CC950000103D0837102D16DDCF
:101420001021103201333C6079602C922B93072BF2
:10143000F2DD414630002AAA04F066FA002800D006
:10144000A7E0103D2C9A2B9B2DAF102DE8DCB34666
:101450004E46A14614004A46641901333A607D6045
:101460002C942B93072B00DD5FE1083714E44146F1
:1014700058462AAA04F048FA002800D135E4C146AB
:101480000E99002902D0584602F00AFD4B465B6EC9
:10149000DB0713D44B469B899A050BD55B0601D518
:1014A00000F081FF099857B0F0BCBB46B246A94690
:1014B000A046F0BD4B46986D02F0AEFF4B469B89AF
:1014C000ECE70F200C9A0D9BA446B9461D9F010026
:1014D0001140795C1C071509013E2C433170190934
:1014E0000B00210022001943F1D10C920D9356AB51
:1014F0009B1B4F46E2460B93C7E5414658462AAA36
:1015000004F002FA0028BAD12C9C2DAFFFF7BAFBE9
:10151000414658462AAA04F0F7F90028AFD12C9C7E
:101520002DAFFFF79DFB2B9BDC4D102E1DDD1022F8
:10153000914603E0103E0837102E16DD4A4610345F
:1015400001333D607A602C942B93072BF2DD4146EA
:1015500058462AAA04F0D8F9002800D08FE7103E98
:101560002C9C2B9B2DAF102EE8DCA419013360C7F7
:101570002C942B93072B01DCFFF7AAFB414658461E
:101580002AAA04F0C1F9002800D078E72C9CFFF7C4
:101590009FFBB346C14673E72499002900DC0EE1A6
:1015A000149A159B15009A4200DD1D00002D0CDDDC
:1015B0002B9B6419089301333E607D602C942B9320
:1015C000072B01DD00F0FAFD0837EB43DB171D4068
:1015D000149B5D1B002D00DD7BE3149B9C46534652
:1015E000B44465465B0501D500F00FFD249B159AB8
:1015F000934203DB5246D20700D4E0E31C9A3A60E0
:101600001B9A94467A602B9A6444089201322C9477
:101610002B92072A01DD00F0DEFD083715998C4674
:10162000CB1A6644721B1E00934200DD1600002E8A
:101630000CDD2B9AA419089201323D607E602C9437
:101640002B92072A01DD00F051FE0837F543ED1714
:1016500035405D1B002D01DCFFF730FB904A2B9BD2
:101660009146102D00DCE3E2220010264C4604E0F7
:101670000837103D102D00DCD8E2103201333C60F9
:101680007E602C922B93072BF2DD414658462AAA06
:1016900004F03AF9002800D0F1E62C9A2B9B2DAFEC
:1016A000E7E701235246134201D0FFF7DDFB7B60E1
:1016B0002B9B01345D1C2C9408932B95072D01DC8A
:1016C000FFF704FC414658462AAA04F01DF90028F9
:1016D00000D0D4E62C9C2B9D2DAFFFF7F8FB159B7B
:1016E0005E1E002E01DCFFF7F2FB6D4B9946102EBB
:1016F00005DCBFE20837103E102E00DCBAE24B4694
:101700003B601023103401357B602C942B95072D02
:10171000F0DD414658462AAA04F0F6F8002800D029
:10172000ADE62C9C2B9D2DAFE5E7414658462AAAF5
:1017300004F0EAF8002800D0A1E62C9C2DAFFFF7BA
:10174000ABFA5346DB0600D490E00F9C08CC0C9318
:1017500000230F940D93BFE4E30600D47FE00F9BBA
:1017600004CB0C9200220F930D9201236EE453469A
:10177000DB0600D486E00F9C08CC0C93DB170D939E
:101780000F9400D4CDE40C990D9A00244B4294415F
:101790000C930D942D231CAAD37654462C3B58E46D
:1017A0005346DB0701D4FFF789FAA9E5A246AB4609
:1017B0001293A2E4069B0F921B78FFF79DF9394B19
:1017C00001343B6001237B602B9B2C9408930133F5
:1017D0002B93072B01DD00F0D1FC0837002900D046
:1017E00054E2524601231340159A134301D1FFF7E7
:1017F00065FA1C9B3B601B9B9C467B602B9B644457
:10180000089301332C942B93072B00DDA7E33A00B8
:1018100008324EE2302162333DAAD1541CABE72698
:101820009C46664431E41A9B002B01D1FFF7A7F9CF
:101830001A9B1B78002B01D1FFF7A1F98023DB0055
:101840001C43069B1B78FFF757F90F9C099A08CC9D
:10185000069E1A60D2175A600F94FFF751FA63067A
:1018600000D466E20F9B04CB92B27AE753465B0644
:1018700000D451E20F9C08CC9BB20C9300230F9430
:101880000D9329E453465B0600D459E20F9C08CC23
:101890001BB20C93DB170D930F943FE4BC95000033
:1018A000CC9500004C9400001698179902000B008C
:1018B00007F060FC002801D000F030FE129B612B85
:1018C00001D100F0ABFD412B00D197E2089B013321
:1018D00001D100F0C8FD2023129A9A430B92472AA7
:1018E00001D100F0ABFD802352465B001A431892F1
:1018F0001699179A002A01DA00F05AFD00230D000C
:10190000914619930E930B9B462B01D100F07AFC64
:10191000452B01D100F067FD28AB049325AB039361
:1019200024AB0293089B2A0001930223584600939C
:101930004B4600F0F3FF0B9B0600472B01D000F055
:1019400075FE5346DB0701D500F01BFD524607929A
:10195000189A289B92469B1B15930B9B472B00D1F3
:101960001EE30B9B462B01D100F08EFC249B1493AD
:10197000149B5C1E0B9B2494412B01D100F0AEFD07
:1019800048226B469B1800221B7828201CA90918A6
:101990000B702B23002C03DA0124149BE41A2D2353
:1019A00029201CA909180B70092C01DC00F080FD0E
:1019B0001CAA3723944663441D00BA46B146200052
:1019C0000A2105F06BFD2E003031013D2000297009
:1019D0000A2105F07DFC27000400632FEFDC4B4655
:1019E000B14601001CA81E0037224B468446303108
:1019F000023BC9B2624457461970934201D300F0CA
:101A00000EFE2A22624400E019781CA81170844658
:101A100037210133614401328B42F5D139234A46E3
:101A200063449B1A2A226244944626AA63449B1A62
:101A30001E93159B1E991A008C4662440B92012B33
:101A400001DC00F0AFFD1B9A0B9B944663440B93A3
:101A5000E44B079A1A401300802252001A43924620
:101A60000B9AD343DB171A40002307921893139362
:101A70001493199B002B00D0C0E200221CABDB7E2C
:101A80000892FFF70FFB414658462AAA03F03CFF95
:101A9000002800D0F3E42C9C2DAFFFF7F7F8A24606
:101AA000AB461293D04B1D9353469B0671D507232B
:101AB0000F9C07349C43220018CA0C930D940F927C
:101AC0005346DB070DD50C9A0D9B1100194308D026
:101AD000302223AB1A70129A5A70524602231A43CC
:101AE00092465346BF4C23401C000223FFF7AEFA38
:101AF000AB461293FFF79DFAA246AB461293FFF74F
:101B0000DEFA1293B94BA246AB461D93CCE74C3B91
:101B1000069A1C43013213780692FEF7EDFF9933C3
:101B2000FF33F5E7414658462AAA03F0EDFE0028A8
:101B300000D0A4E42C9C2DAFFFF7F2FB089B079389
:101B4000062B00D938E1002300220E93079BA84EF4
:101B50000B930F9400230892189213921492FFF79C
:101B600053F81F9B2099F61A1A00300003F052FE1A
:101B70001A9920004B788C465A1E93419C44634628
:101B80000A221A932900002305F0CCFC0027FFF756
:101B90006FFB5346DB0631D50F9C08CC0C9300231A
:101BA0000F940D938CE7414658462AAA03F0ACFEE9
:101BB000002800D063E42C9C2B9D2DAFFFF761F92A
:101BC000414658462AAA03F09FFE002800D056E45A
:101BD0002C9C2B9D2DAFFFF762F9414658462AAA4F
:101BE00003F092FE002800D049E41CABDB7E2C9C65
:101BF0002DAFFFF721F8B346B94641E453465B06E3
:101C000000D4AAE00F9C08CC9BB20C9300230F9445
:101C10000D9355E7414658462AAA03F075FE002861
:101C200000D02CE42C9C2DAFFFF765FBA1461400DF
:101C30004A46641901333A607D602C942B93072B3C
:101C400001DCFFF73AF8FFF74EF95446012B01D0BB
:101C5000FFF7CCFAFFF77FFA0F9C099A08CC1A60BD
:101C6000069E0F94FFF74CF83000FEF7A3FE01002C
:101C7000FFF769F94B46A41901353B607E602C944F
:101C80002B95072D01DCFFF721F91BE51C9B3B6021
:101C90001B9B9C467B602B9B6444089301332C94D4
:101CA0002B93072B00DD5AE13A000832002900DAB5
:101CB00041E3159901338C466444166051602C94BD
:101CC0002B93072B01DDFFF70EF908321700FEF703
:101CD000F5FF484A2B9B9146102D51DD22004C46C2
:101CE000B1465E4603E00837103D102D44DD10215B
:101CF000103201333C6079602C922B93072BF2DD7C
:101D0000414630002AAA03F0FFFD002800D040E43D
:101D10002C9A2B9B2DAFE7E753460F9C9B0500D4D5
:101D200014E508CCDBB20C9300230F940D93FFF75E
:101D3000D3F9A30500D412E50F9B04CBD2B210E572
:101D400053460F9C9B0500D416E508CC5BB20C9360
:101D5000DB170D930F94FFF7E1F953460F9C9B059A
:101D600000D41AE708CCDBB20C9300230F940D9338
:101D7000A6E6214EFFF71DF8B3464E46A1461400D5
:101D80004A46641901333A607D602C942B93072BEB
:101D900000DDF8E0083720E42D231CAAD376FFF7F6
:101DA00002F8414658462AAA03F0AEFD002801D1A8
:101DB000FEF7B1FFFFF76AFB06230793C3E6159A08
:101DC00094466644D31A761B9E4200DC3EE41E0015
:101DD0003CE40F9C099A08CC069E1A800F94FEF7EB
:101DE0008FFFC046FFFBFFFF1C94000030940000F3
:101DF00044940000CC9500000C940000302223ABEA
:101E00001A70283202245A7053461C43089B632BD5
:101E100000DDFAE200233DAE0E9381231698179958
:101E200052465B001A431892002900DA4DE2202244
:101E3000129D002395430B95A246050089461993F0
:101E4000129B612B00D14FE3412B00D05BE52800B2
:101E500024AA494603F05AFCFF2300229B0506F002
:101E60008BFB0022002304000D0005F02DFB002851
:101E700001D001232493DF4B0793089BB1469C4676
:101E8000B44463461393013B149353462197C246CF
:101E9000159306E00022002305F016FB002800D071
:101EA000C1E20022D44B2000290006F065FB0D00A2
:101EB000040007F07DF9070007F0B0F9B046020012
:101EC0000B002000290006F0C3FD4246079B0136A7
:101ED000DB5D04001370149B0D009B1A1093139B81
:101EE00011964345D6D1159BD0469A464B46B146EE
:101EF0001E00012313975B42219F1492109300222E
:101F000020002900BD4B05F0F9FA002800D052E26C
:101F1000002220002900B94B05F0D6FA002803D092
:101F2000139BDB0700D546E2109B30221900494481
:101F3000002B0CDB4B4618001A7001338142FAD19A
:101F4000119A109B944601339C4463461193119B54
:101F50009B1B159353460793189B9A46FDE44146F5
:101F600058462AAA03F0D0FC002801D0FFF787FAD0
:101F700024992C9C2B9B2DAA98E64B46986D02F039
:101F80004BFAFEF7DFFD414658462AAA03F0BCFC97
:101F9000002801D0FFF773FA2C9C2DAFFFF71DFB33
:101FA000249B1493DA1C02DB089A934207DD129BF0
:101FB000023B1A00129320239A430B92D8E4149BFD
:101FC000159A934200DAA1E1079A0B93D20703D541
:101FD0001B9A944663440B93079B5B0503D5149BA4
:101FE000002B00DDA5E20B9AD343DB171A406723D1
:101FF000079212930023189313933AE52D231CAAFA
:10200000D37600220892FFF750F8159B13999C464F
:10201000B44463460B937A4B22009946534610937F
:10202000189B2C009A4611963B001A9F002933D02A
:10203000514600297ED11399013F0139139120990E
:1020400019601F998C4659602B996244089101319F
:102050002C922B91072972DC08330B99081B3978D5
:102060000D00814200DD0500002D0BDD2B9952197A
:10207000089101311C605D602C922B9107296ADC6C
:1020800039780833E843C01705404D1B002D17DC95
:10209000641813990029CBD1514600294AD1119EC9
:1020A0001A971F00159B1099F318200025008A46E7
:1020B0001400984201D8FFF799FA1D00FFF796FA2D
:1020C00048462B990890102D27DD5846A3464446D4
:1020D0001026B8462700040003E0103D0833102DF9
:1020E00015DD48461032013118605E602C922B914C
:1020F0000729F2DD390020002AAA03F005FC002898
:1021000058D1103D2C9A2B992DAB102DE9DC2600CF
:1021100038005C464746B34680460898521901315C
:1021200018605D602C922B91072935DC39780833D3
:102130006418AEE7012149428C46E2447FE74146FC
:1021400058462AAA03F0E0FB002801D0FFF797F9D0
:102150002C9A2DAB81E7414658462AAA03F0D4FBBE
:10216000002801D0FFF78BF939782C9A2DAB89E73D
:10217000092C01D9FFF77CF8FFF797F8414658463C
:102180002AAA03F0C1FB002801D0FFF778F92499AF
:102190002C9C2DAFFFF722FB414658462AAA03F09C
:1021A000B3FB002801D0FFF76AF939782C9A2DABE0
:1021B00064186EE7A346B946FFF762F941465846F0
:1021C0002AAA03F0A1FB002801D0FFF758F92C9CA4
:1021D0002DAFFFF7FAF9414658462AAA03F094FBBF
:1021E000002801D0FFF74BF9249B2C9C2DAFFFF763
:1021F00015FAC04630940000000030400000E03F77
:10220000CC95000028AB049325AB039324AB029339
:10221000089B2A0001930323584600934B4600F085
:102220007DFB03780600302B21D0249C089B9C4624
:10223000644453460793189B34199A46002300229E
:102240002800494605F040F92300002801D0FFF797
:1022500082FB289BA34201D3FFF77DFB30215A1C50
:1022600028921970289B9C42F9D8FFF774FB002232
:1022700000232800494605F027F90028D5D101247C
:10228000089BE41A2494D1E7249A01231492002A8B
:1022900000DC92E107990B4008990B4300D077E1ED
:1022A000149B0B9366231293079B5B0500D542E1B9
:1022B0000B9AD343DB171A4007929BE6089A1CAB94
:1022C000DB7E07920F94FEF77DFD2023A246129A33
:1022D0009A430B928022169B179C12061D0094466F
:1022E0002300634499462D231993A9E54146584696
:1022F0002AAA03F009FB002801D0FFF7C0F8159BBC
:10230000249A2C9C9B1A2DAFFFF7A0F91B9A159BC2
:10231000944667221292149A63440B93002AC3DCFA
:10232000981A421CD343DB170B921A40079261E6BE
:102330000690FEF7E4FB4D42103100DB73E1C1492A
:102340001027894621004C46B1465E4604E008321B
:10235000103D102D00DC8EE0103101331460576009
:102360002C912B93072BF2DD414630002AAA03F073
:10237000CBFA002801D0FFF70CF92C992B9B2DAA42
:10238000E6E7089BF41853460793189B9A4655E7CF
:102390005B6EDB0707D44B469B899B0503D44B46FA
:1023A000986D02F039F801235B420993FFF77AF840
:1023B00000230E938EE7149B079928934B46013B0D
:1023C0001A78C97B8A4207D130201870289B013BBC
:1023D00028931A789142F8D0392A00D1E9E00132E5
:1023E000D2B21A70B3E5089B2A005C1C28AB049398
:1023F00025AB039324AB0293022358460093019428
:102400004B4600F08BFA060013E75846591CFDF7BF
:1024100073FF061E00D10BE10E90FEE4302223ABC9
:102420001A704832EEE443461493159BD0469A4600
:102430004B461397B146219F1E0060E5089B002B79
:1024400001D101230893802352465B001A4318925E
:102450001699179A002AABDB00230D0091461993B9
:102460000E93FFF759FA2023129A9A431A3B0B92C4
:102470000893FFF738FAB3464E46A1460C0049468A
:1024800064190133116055602C942B93072B01DCE8
:10249000FFF7BEF9414658462AAA03F035FA00284C
:1024A00001D0FEF7ECFF2C9C2B9B2DAAFFF701FC23
:1024B0001CA92A238C466344002A06D10A002A213B
:1024C000302352181370053B6344200030301870DD
:1024D00026AA01339B1A1E93FFF7ABFA129B012227
:1024E0000F33DBB2FFF751FA280024AA494603F064
:1024F0000DF9FF2300229B0506F03EF80022002381
:1025000004000D0004F0E0FF002801D00123249313
:102510004D4B0793B1E4C146FEF7B8FF179B002B64
:1025200067DB1CABDB7E129A472A5FDD474EFEF766
:1025300040FC672312931A990B78FF2B6BD0002273
:1025400018921392149A05E01398013101301390F8
:10255000FF2B0AD0934208DAD21A4B78002BF3D122
:10256000189B013318930B78F2E71A911492189A7A
:10257000139B94461F9A634453430B9A94469C447E
:102580006246D343DB170B921A400792FFF771FAAA
:102590001B9B9C4662448C46944463460B93662383
:1025A000129381E6079BDB0701D4FFF751FAFFF78F
:1025B0004AFA079A927A1A70C9E4079A1340089A5D
:1025C000134306D10123079365331293653B0B93A5
:1025D00010E594461B9B581C84446246D343DB178A
:1025E0000B921A4066230792129303E5184EFEF7EA
:1025F000E0FB2D231CAAD37695E70F9A08CA08930F
:10260000002B02DA01235B420893069B0F925B7852
:102610000690FEF771FA002318931393A7E702239D
:102620001E93FFF706FA0749894628E7089C00E64B
:1026300043469A89402313434246C1469381FEF79D
:1026400025FFC046CC9500001C94000018940000A3
:102650001494000010B504001300034A10680A0027
:102660002100FEF7D5F910BD10040020F0B51F00C1
:1026700002231F4C1500A5440C0089896A46994322
:102680006B469981636E80211993E3890600D3819B
:10269000E369C9000793636A16A809931AAB00930C
:1026A0000493002302910591069301F0A5FE2A00F0
:1026B0003B0069463000FEF7ABF9051E0EDA6B46AB
:1026C0009B895B0603D54022A3891343A3811698F7
:1026D00001F096FE2800074B9D44F0BD694630008E
:1026E00001F09AF90028EAD001256D42E7E7C046DB
:1026F00094FBFFFF6C040000354B70B505001868B3
:102700000C00002802D0836B002B21D00C23E25E4A
:10271000A389190723D5216900292BD0D80708D50B
:102720000020A06060694042A0610020002908D01C
:1027300070BD00209D0700D46069A06000200029C2
:10274000F6D11B06F4D540231A43A2810138EFE7E6
:1027500001F01CFA0C23E25EA3891907DBD4D90629
:102760002DD55B0716D4216908231A43A28193B2A1
:102770000029D3D1A02080268000B6001840B042A6
:10278000CCD02100280001F049FE0C23E25E216933
:10279000A389C3E7216B00290AD023004033994263
:1027A00004D0280001F07CFB0C23E25E00232363AD
:1027B00024239A430023216963602160D4E709231D
:1027C0002B60402301201A43A2814042B0E7C0465B
:1027D00010040020F0B54546DE4657464E46E0B5AB
:1027E00003690D6985B080460A000191AB4200DAA9
:1027F00091E0142141448C46013D1432AB00D618BF
:10280000634403931B6800919A46336850465F1CEB
:102810003900029204F0D2FC0400BA453CD30023F4
:10282000002118008C46A946009F029A08CA190484
:10283000090C61431B0C634309180D0C5D193B68BF
:1028400009041B041B0C6344090C591A3B68280C2F
:102850002D042D0C1B0C5B1B0D145B1909041D149E
:10286000090C1B040B43AC4608C79642DED2039BFF
:102870004D461A680392002A0ED1009A043B9342F7
:1028800008D9009A03E0043B013D934202D919683C
:102890000029F8D043461D614046019902F0AAFA8A
:1028A000002830DB002301341F00A4460099029861
:1028B0000B6810C81A04120CD7192204120CBA1A89
:1028C0001B0C270CDB1B1714DB1912041F14120C32
:1028D0001B04134308C18642EAD2009A6446944618
:1028E000AB006344196800290DD1043B934208D919
:1028F000009A03E0043B013D934202D91968002984
:10290000F8D043461D61200005B0F0BCBB46B2467E
:10291000A946A046F0BD0020F6E7C046F0B55746F0
:102920004E464546DE461400E0B51D00016C9BB0E6
:10293000824604940595279E002909D00123426C04
:1029400093404A608B6001F069FF00235246136494
:102950002F1E00DA6BE100233A003360CE4B1A40A1
:102960009A4200D16EE1049A059B100019000022E2
:1029700000230A900B9104F0A7FD002812D0012338
:10298000269A1360289B002B00D1B5E2C34818603B
:10299000431E039303981BB0F0BCBB46B246A94646
:1029A000A046F0BD18AB019319AB009350460A9AAC
:1029B0000B9B02F087FB3E0D834600D054E1189B31
:1029C000199E9846B64B4644F318202B00DC96E33C
:1029D00040223800D31A9840B24BF218D44020431A
:1029E00006F04CFC0123B04C013E09190F93002264
:1029F000AE4B06F02DF8AE4AAE4B05F0BDFDAE4A2B
:102A0000AE4B04F07BFE040030000D0006F006FC27
:102A1000AB4AAC4B05F0B0FD02000B0020002900D2
:102A200004F06CFE04000D0006F0C2FB002207005B
:102A3000069000232000290004F04CFD00280AD055
:102A4000380006F0EBFB2B00220004F03DFD434272
:102A500058413B1A0693069C162C00D928E20A9886
:102A60000B99994BE2009B181A685B6804F032FDE1
:102A7000002800D1F7E100230E9343469E1B00235C
:102A80000C933300013C0694013B089300D51AE2F5
:102A9000069B002B00DBF0E1069B0C9A0993D21AEF
:102AA0000C925A4200230693249B91460124092B41
:102AB00000D9EFE1052B02DD0024043B2493249B85
:102AC000042B01D100F05BFC052B01D100F0F2FBDF
:102AD000022B00D0FDE100230D93259B002B01DC90
:102AE00000F0F5FB1D001493079300235246536436
:102AF000172D01DC00F0D4FE012204335B00180026
:102B0000143011000132A842F8D953465964504696
:102B100001F05CFE0390002801D100F0AFFE5346A7
:102B2000039A1A64079B0E2B00D9E5E0002C00D114
:102B3000E2E00998002801DC00F00BFD0F21020003
:102B4000614B0A40D2009B1806111C685D68C305E2
:102B500001D500F006FC0A9A0B9B109211930223F8
:102B60009846002E11D0594F0123334209D09C467C
:102B70003A687B6820002900E04405F0FDFC040071
:102B80000D0076100837002EEED110981199220012
:102B90002B0005F0EFF806000F000E9B002B09D06C
:102BA0000022300039004A4B04F094FC002801D088
:102BB00000F0FDFB404606F031FB32003B0005F023
:102BC000DBFC0022434B04F099FD434A0B00944682
:102BD0006344129013911393099B1593079B1093D1
:102BE000002B01D000F00AFC0022300039003B4BE2
:102BF00005F02EFF129E139F32003B0004000D00D3
:102C000004F07CFC002801D000F0E0FD80200006EC
:102C10008446390061440B0032002000290004F092
:102C200059FC002868D00023002799468DE0012335
:102C30006F007F083A003360174B05971A409A429D
:102C400000D090E6269A264B13603A03120B1443E9
:102C50001AD1289B002B01D100F01EFE214B0393BB
:102C60000833289A136095E60A9B0B9C184A1800B3
:102C700023031B0B1A431C4B11009C46189B6644F4
:102C8000984600230F93B2E6289B002B00D00DE35B
:102C9000164B03937EE6C0460000F07F4D94000083
:102CA0003204000012040000000010FE0000F83F93
:102CB00061436F63A787D23FB3C8608B288AC63F42
:102CC000FB799F501344D33F3097000008970000D2
:102CD0000000F03F00001C400000C0FC0000144059
:102CE0000F270000E095000001FCFFFFDC950000CD
:102CF000179B9946169B9B46199B002B00DA8BE08D
:102D0000099A0E2A00DD87E0DC4BD2009B181E6872
:102D10005F68259B002B1CDA079B002B19DC079BA7
:102D2000002B00D07FE700223900D54B300005F0A2
:102D300023FC0B0002000A980B9904F0D5FB00233A
:102D400000279946002800D1DCE2259B039DDC4347
:102D5000E0E232000A9C0B9D3B002000290005F0B8
:102D600009F806F025FA814606F058FA32003B00D1
:102D700005F002FC02000B002000290005F068FEAF
:102D8000039A531C98464B4630331370079B012B14
:102D900001D100F04CFC013A012304925246C24694
:102DA0000692984624E001239C4632003B00200016
:102DB0002900E04404F0DEFF06F0FAF9814606F04F
:102DC0002DFA32003B0005F0D7FB02000B0020007B
:102DD000290005F03DFE01239C464B464446049ADB
:102DE00030331355079BE244984501D100F01CFC99
:102DF0000022A44B05F0C0FB0022002304000D00BC
:102E000004F062FB0028CED0069BD0469A46099B70
:102E100044460133099356E10D9A002A6FD0249A53
:102E2000012A00DCAFE2079B5D1E4B46A94500DB93
:102E300095E2069AEB1A94469C446346A9460025FF
:102E400006930C99079BCC1A002B06DB9C4608982E
:102E50000C006044614408900C910121504601F03F
:102E6000DDFD07004EE043469E1B3300013B089307
:102E700000D56BE300230E930C93069A089B9446AF
:102E80006344089300239946249B01240992092B4B
:102E900000D80FE6012200230D92023A24930792F4
:102EA0002593002352465364079B002114932EE67A
:102EB00001230E9343469E1B00230C933300013BDA
:102EC000089300D4E4E501239B1B0C930023089393
:102ED000DEE500230D93249B032B01D000F0B8FC0A
:102EE000099A259B94466344149301331D1E07934E
:102EF00000DDFAE50125F8E5634B03934AE54D460D
:102F000000270C9C002C0DDD089A002A0ADD230006
:102F1000944200DD0AE20C9AE41AD21A0C92089A42
:102F2000D31A08934B46002B1BD00D9B002B00D1CE
:102F3000B5E1002D10DD39002A00504601F070FE89
:102F40005A4601000700504601F098FD0600594618
:102F5000504601F063FCB3464B465A1BA94500D0CE
:102F60009EE10121504601F059FD069A8146002A52
:102F700000DDC9E0249B0025012B00DC9DE1069BC0
:102F80000120002B00D0C9E01F2308991A008C46AD
:102F900060440240034200D1A4E001339B1A042B99
:102FA00001DC00F072FC1C239B1A0C9AE418944676
:102FB0009C4462468C469C4463460C9208930C9B4E
:102FC000002B05DD59461A00504601F095FE834658
:102FD000089B002B05DD49461A00504601F08CFE87
:102FE00081460E9B002B00D040E1079B002B00DCAC
:102FF00026E10D9B002B00D0A8E0099B013309932B
:10300000039B079A5D1E4B46A846B94655460124C8
:103010005E4692461F0007E0310000230A22280086
:1030200001F006FC0600013439003000FFF7D2FB46
:103030004346303018555445EEDB3B004F46994629
:10304000079BB346AA4601240690002B00DD1C0016
:10305000039B00269C46644459460122504601F0D9
:103060004BFE4946834601F0C5FE002800DC60E2C5
:10307000651E2A782B0003990FE0C04630970000A8
:1030800000001440000024404C940000013B8D429D
:1030900000D147E21A782C00013D392AF6D00132DE
:1030A0002A704946504601F0B9FB002F0BD0002E84
:1030B00005D0BE4203D03100504601F0AFFB3900CD
:1030C000504601F0ABFB5946504601F0A7FB0023E8
:1030D000099A2370269B1A60289B002B00D159E483
:1030E0001C6057E41C230C9AE41894469C446246E6
:1030F0000C92089A94469C44634608935FE720220A
:103100002000D31A98406BE40100504601F088FD7E
:10311000249B8146012B00DC0AE100254B461B69FC
:1031200003339B004B44586801F02EFC2023181AEF
:103130002AE7002339000A22504601F079FB149B4C
:103140000700002B00DC77E309960793002C05DDD0
:1031500039002200504601F0CFFD0700B846002D8F
:1031600000D082E2079A039B94461D00013B9C44D9
:103170006346089301232E005D46CB46049A1A400D
:10318000079259462800FFF725FB0300390030332A
:103190000C902800069301F02DFE5946040042468B
:1031A000504601F041FEC36881460100002B3BD12F
:1031B000280001F01FFE49460490504601F02EFB06
:1031C000249A049B1343079A134300D102E3002C73
:1031D00000DAF2E1249B1C43079B1C4300D1ECE185
:1031E000049B002B00DDC9E2069A741C3270089A19
:1031F000964200D1CCE2290000230A22504601F079
:1032000017FB002305000A2239005046474511D01C
:1032100001F00EFB4146070000230A22504601F050
:1032200007FB26008046ACE7504601F0F7FA012381
:103230000493CCE701F0FCFA260007008046A0E7E3
:10324000249B022B4DDC0D9B002B00D07EE74946D2
:103250005846FFF7BFFA0300039A30330693137002
:10326000099B00260133541C0993F5E6494658464C
:1032700001F0C0FD002800DBB7E6099B59460A2291
:1032800050465E1E002301F0D3FA0D9B8346002BAF
:1032900000D04EE7149B002B1DDD0793B0E64A4695
:1032A0005946504601F0BCFC83465AE6D44B039382
:1032B0000333D6E401230D9312E60499059A0029FD
:1032C00000D05CE61300120300D058E63AE0012378
:1032D00007932593E5E5149B09960793249B022BFE
:1032E000B5DD079B002B00D02FE54946052250464F
:1032F00001F09EFA81460100584601F07BFD00284E
:1033000000DC22E5039A31231500099C1370531C3D
:10331000013403934946504601F080FA631C099337
:10332000039C0395002F00D0C9E6CCE61300F2E51C
:10333000049B002B00D0F0E60499059A13001203B9
:1033400000D0EAE6AF4A0025134200D117E60C9BF5
:10335000013501330C93089B013308930FE65D1B85
:103360006FE5A94B0E401A6A5B6A0A980B9904F044
:1033700001FD0323109011919846FFF7F2FB012302
:103380000D93FFF7AAFB0F9A002A00D1F2E19F4AA2
:1033900094466344089A4D4694469C44624608927B
:1033A0000C9A94469C44634614000C9355E5079B85
:1033B000002B00D118E2149C002C00DC9CE4099B3B
:1033C0000022013B300039001593914B05F0D4F8F1
:1033D000060040460F00013005F020FF32003B00A0
:1033E00005F0CAF800228B4B04F088F98A4A0B00DA
:1033F0009446634412901391109413930D9B002BE9
:1034000000D148E1109B00205A1E844BD2009B182B
:103410001A685B68824904F0ADFC129A139B05F0B0
:1034200017FB129013913000390005F0C1FE169081
:1034300005F0F4FE02000B003000390005F008FB37
:10344000039B169E5A1C303604000D0090461E70D9
:1034500002000B001298139904F050F8002800D0D5
:10346000DDE14B46002717935B46BB46129E139F38
:10347000169333E001239C46109BE3449B4500DBFD
:1034800036E4002230003900614B05F075F8002267
:103490005F4B06000F002000290005F06DF80D00BD
:1034A000040005F085FE814605F0B8FE02000B0021
:1034B0002000290005F0CCFA0123040048465A46B2
:1034C0009C46039B3030985432003B0020000D0096
:1034D000E04403F0FFFF002800D09EE122002B0013
:1034E0000020504905F0B4FA32003B0003F0F2FF2F
:1034F0000028BFD0169B42469B46159B0399099313
:1035000002E08A4200D151E11400013A1378392BCC
:10351000F7D090460133DBB242461370099B01336A
:103520000993D0E53123039A1370099B0133099362
:10353000B7E5002803D1069BDB0700D598E52300FB
:103540001C00013B1A78302AFAD0AAE500230E931A
:10355000B9E4099B002B00D122E10A980B995C4247
:103560000F232E4A2340DB00D3181A685B6805F04E
:1035700003F8241106000F00002C00D164E10222A0
:1035800010961197002317001F4D0122224205D0EB
:103590002A686B6804F0F0FF0123013764100835D6
:1035A000002CF2D1B846109E119F002B01D1FFF7DD
:1035B000F4FA06000F00FFF7F0FA049BD946AB4679
:1035C0003500002B12DD59460122504601F094FBD4
:1035D0004946834601F00EFC002800DC24E1069BEE
:1035E000392B00D1E8E00C9B31330693069B6C1C11
:1035F0002B70099B3E0001334746099351E5C046B5
:10360000DC9500000000F07F089700003304000004
:103610000000244000001C400000C0FC3097000067
:103620000000E03F0000F03F069BD0469A460200B3
:103630000B0004F063F832003B0004000D0003F0BF
:103640005DFF00280ED132003B002000290003F06E
:103650003BFF002801D1FFF7DAFB4B46DB0701D423
:10366000FFF7D5FB424603994EE75046796801F0D3
:10367000ADF8041E00D116E139003B690C319A1CEB
:1036800092000C3000F0A6FF01222100504601F00C
:1036900033FB804666E5109B8649013BDB00C91879
:1036A00008684968129A139B04F066FF1290139100
:1036B0003000390005F07CFD169005F0AFFD0200EA
:1036C0000B003000390005F0C3F9039A0D00511CBE
:1036D00088461100169E109B303616708C461A00D4
:1036E0006244040046461092012B1DD0109B984660
:1036F0000022714B2000290004F03EFF0D00040061
:1037000005F056FD070005F089FD02000B002000C2
:10371000290005F09DF930373770013604000D009F
:10372000B045E5D1109B9846129E139F0022634B33
:103730003000390003F0E2FF22002B0003F0CAFE44
:10374000002865D132003B0000205C4905F080F97B
:1037500022002B0003F0D2FE002801D1FFF7CCFAA3
:1037600043461C00013B1A78302AFAD0159B0133DE
:103770000993A8E43623189A9B1A0BE6069BD946B0
:10378000AB463500392B17D0069B741C01332FE74D
:10379000099BD94601333E00AB46474609935BE49B
:1037A00002230A9E0B9F9846FFF7F7F9099B904664
:1037B000013309933123AFE639232B70099B3E0077
:1037C0000133474639226C1C099353E40023002738
:1037D000994697E5069BD946AB463500392BEBD089
:1037E000002C00DDFFE601E7404605F017FD320042
:1037F0003B0004F0C1FE0022314B03F07FFF314A51
:103800000B0094466344129013911393FFF7ECF965
:10381000159B42460399099376E6169B9B46159B9A
:103820004446013309934EE4002800D0DEE6069BAF
:10383000DB0700D5D3E6D9E6149B09960793249BB2
:10384000022B00DD4DE581E402239846FFF7A5F940
:1038500053460D9A002150465A6400F0B7FF03907A
:1038600000280BD05346039A1A64002301222593A3
:10387000013B14930D920793FFF73EFAD5210022E6
:10388000114B1248490002F08BFF042B01D1FFF7C6
:1038900096FB3C239B1A26E40D4B0393FFF77AF823
:1038A0000021FFF734F90022074B0A49074802F0CC
:1038B00077FFC04630970000000024400000E03F42
:1038C00000001C400000C0FCEC95000000960000C9
:1038D000E0950000EA020000F0B5C6460C0000B515
:1038E000A28980460C23C95E13074CD480236268EA
:1038F0001B010B43A381002A66DDA66A002E3ED081
:1039000042464146156800220A609AB2DB0460D440
:10391000012300224046E169B047431C68D0A289D8
:10392000A66A530706D56368C01A236B002B01D023
:10393000E36BC01A00230200E1694046B047431C14
:1039400049D143461B68002B45D01D2B01D0162BB7
:1039500057D1A3892F4A1340A381002363602369B1
:1039600023604346216B1D60002908D023004033AB
:10397000994202D0404600F093FA002323630020CE
:1039800080BCB846F0BD2669002EF8D023682660BA
:103990009D1B0023920700D16369A360002D04DC06
:1039A000EDE736182D1A002DE9DD2B0032004046D8
:1039B000E169676AB8470028F3DC40220120A38947
:1039C00040421343A381DBE7E26B002A00DD94E76A
:1039D000D5E7206DA5E7A3890E4A13400022626057
:1039E00022691BB2A3812260DB04BAD52065B8E747
:1039F00043461B68002B00D191E71D2B06D0162BE8
:103A000004D04022A3891343A381B9E74346002091
:103A10001D60B5E7FFF7FFFF70B505000C0000283B
:103A200002D0836B002B15D00C22A35E002B17D085
:103A3000626ED20701D49B0514D528002100FFF740
:103A40004BFF636E0500DB0702D4A3899B0515D5E8
:103A5000280070BD00F09AF80C22A35E002BE7D17D
:103A60000025F5E7A06D00F0CFFC28002100FFF74E
:103A700033FF636E0500DB07EAD4E6E7A06D00F0D4
:103A8000CBFCE5E770B5041E2AD0194B1D68002D4C
:103A900002D0AB6B002B17D00C22A35E002B11D0F1
:103AA000626ED20701D49B0512D528002100FFF7D2
:103AB00013FF636E0500DB0702D4A3899B050BD5BA
:103AC000280070BD0025FBE7280000F05FF8E3E761
:103AD000A06D00F099FCE8E7A06D00F09DFCEFE719
:103AE000044B0549186800F057FC0500E8E7C0469C
:103AF0001004002080960000193A000010B5024919
:103B000000F04AFC10BDC046B9680000436E10B515
:103B1000DB0702D483899B0501D5002010BD806D91
:103B200000F072FCF9E7C046436E10B5DB0702D423
:103B300083899B0501D5002010BD806D00F06CFCD1
:103B4000F9E7C04670B568254A1E55430E002900A6
:103B50007431FCF7D1FB041E09D000232A00036056
:103B600046600C300021A060683200F0DBFD2000D0
:103B700070BDC04610B5034B0349186800F00CFC3B
:103B800010BDC04680960000B9680000F8B5DE465A
:103B900057464E464546E0B506003C4F380000F01B
:103BA00033FCB46B002C68D1394B0322F363B82388
:103BB0009B00F45004337568F2500833F218043B4C
:103BC000F2502800042308220021EB606C662C6070
:103BD0006C60AC602C616C61AC615C3000F0A2FD8B
:103BE00028002C4BED619B462B622B4B58309A469C
:103BF0006B622A4B9946AB62294BEB62984600F008
:103C0000FBFBB568274B280008220021EB606C669F
:103C10002C606C60AC602C616C61AC615C3000F05D
:103C200081FD5B462B6253466B624B462800AB62BC
:103C30004346ED61EB62583000F0DEFBF5681A4B4D
:103C4000280008220021EB606C662C606C60AC6080
:103C50002C616C61AC615C3000F064FD5B462B62F2
:103C600053466B624B462800AB624346ED61EB6204
:103C7000583000F0C1FB0123B363380000F0CCFBE7
:103C8000F0BCBB46B246A946A046F8BD080A0020D3
:103C9000FD3A0000715700009D570000DD570000FD
:103CA000095800000900010012000200F8B547465B
:103CB000CE4680B5304F8046380000F0A5FB2F4B34
:103CC0001E68B36B002B35D0B8239B009C460423A1
:103CD000994666447368B468013B03D525E06834AF
:103CE000013B22D30C22A55E002DF8D12000244BED
:103CF0005830E360656600F07FFB380000F08CFB15
:103D00002000082200212560A560656025616561AD
:103D1000A5615C3000F006FD256365636564A564FC
:103D20002000C0BCB946B046F8BD3568002D05D0AE
:103D30002E00CFE73000FFF729FFC5E7D621404628
:103D40004900FCF7D9FA041E0DD04B46D02205607D
:103D5000250043600C300021A060520000F0E2FC1E
:103D600034602E00B6E73060380000F055FB0C23BD
:103D700042461360D4E7C046040A00208096000043
:103D80000100FFFF10B5024800F03EFB10BDC04629
:103D9000040A002010B5024800F03EFB10BDC046EA
:103DA000040A002010B5024800F02EFB10BDC046EA
:103DB000080A002010B5024800F02EFB10BDC046D6
:103DC000080A002010B5044800F01EFB034B04490C
:103DD000186800F0C1FA10BD040A00201004002089
:103DE0000D3B000010B5044B0449186800F0B4FA0C
:103DF000034800F011FB10BD10040020293B000017
:103E0000040A0020F8B50C000500FCF737FD204F30
:103E1000BB685E6803239E431E4B341B9C46644470
:103E2000240B013C113324039C4207DB00212800B2
:103E3000FCF7AEFDBB689B19984204D02800FCF744
:103E400025FD0020F8BD28006142FCF7A1FD431CC0
:103E50000DD00122BB68361B16435E600E4B280056
:103E60001A68141B1C60FCF711FD0120EAE7002111
:103E70002800FCF78DFDBA68831A0F2BDEDD074999
:103E80000968401A0449086001210B435360D5E7D3
:103E900000000020EF0F0000B809002008040020F7
:103EA000F0B5C64605000C0000B500294FD0FCF760
:103EB000E5FC210008394C68012622000320B243AA
:103EC0008F187B688343624898468368BB426AD0F8
:103ED00043467B6026421ED108239C460C688444DE
:103EE000091B12198C6864454FD0CB68E3609C6055
:103EF0004346FC186468344211D1BB68554C4244B7
:103F0000A34200D17EE0FC68DC60A3600123134380
:103F10004B608A5006E0FC1864683442EDD01643CA
:103F20004E603A6080239B009A4213D25409D30812
:103F30000122A2404468DB002243426018188368D3
:103F4000C8608B608160D9602800FCF79FFC80BC52
:103F5000B846F0BD530A042B3ED8940926003934E4
:103F60003836E40004192368083C03279C4242D0F9
:103F70005868B843904202D99B689C42F8D1DC68EB
:103F8000CC608B60A160D960DEE74346F8184068DA
:103F9000304257D1FB68B86842441643C36098600A
:103FA0004E608A50D0E713004344264206D10A6887
:103FB000891A8C689B18CA68E260946001221A43CF
:103FC0004A60254A816012689A42BDD8234B280076
:103FD0001968FFF717FFB7E7142B07D9542B1AD826
:103FE000140B26006F346E36E400BBE71E005C3312
:103FF0005B36DC00B6E70122B610B24046683243B9
:104000004260BDE7D9609960CB608B6001231343A8
:104010004B608A5098E7AA246400A34205D8D40BC9
:10402000260078347736E4009CE70D4CA34205D88F
:10403000940C26007D347C36E40093E7FE247E2633
:10404000A4008FE7330013434B603A607CE7C0461F
:1040500000000020080000200C040020E8090020D7
:1040600054050000F0B5DE46454657464E46E0B5DD
:10407000936883460C00904683B0002B23D08B8935
:104080001A0728D50A69002A25D0424616689A07D9
:104090002DD50027AC4B00259946BA46002D58D0A7
:1040A0002B004D4500D9A84B52465846E169676A36
:1040B000B847002858DD43469B6882442D1A181AD9
:1040C00043469860EAD1002003B0F0BCBB46B2463C
:1040D000A946A046F0BD21005846FEF70DFB00287A
:1040E00000D02DE14246A38916689A07D1D4DA0799
:1040F00042D4002200279146002F25D08022920032
:10410000A568134200D180E0AA46BD4200D9AFE0C5
:104110009022D200134200D0BBE0206852464946AC
:1041200000F0AAFAA3685D1BA5603D000027236884
:104130005344236043469B68A9445D1B43469D60EE
:10414000C1D0A389002FD9D132687768914608364B
:10415000D2E7336875689A4608369FE721000198D0
:10416000FFF75AFC00282FD00C22A35E402201202A
:104170001343A3814042A7E700230022B146002752
:104180001E005B46002092460193002F27D0002896
:104190002FD03300BB469F4200D99B46206822693E
:1041A0006369904204D9A2689D18AB4500DD9EE08A
:1041B0005B4561DC656A5246E1690198A847051EC6
:1041C000D2DD0120761BC9D043469B68AA447F1BE1
:1041D0005D1B43469D6000D175E7002FD7D14B464C
:1041E0001B689A464B465F6808239C46E144002FB3
:1041F000F5D03A000A21504600F0B2F9002800D16B
:1042000095E053460130C61AC3E7206823699842F7
:1042100016D863699A46BB4212D84C4B38009F426D
:1042200000D94B48514603F053F85346656A43435F
:104230004A465846E169A847051E95DD7F1B79E788
:10424000BD4200D93D002A00494600F015FAA36896
:1042500022685B1B5219A3602260002BEED1210063
:104260005846FFF7D9FB002800D07DE77F1B61E7A8
:104270003D00BA46206851E75A46514600F0FCF925
:104280005A46A3685D469B1AA36023685B4423607B
:1042900097E7606922682169551A42001218D00F09
:1042A0008218681C5210C01992460195904201D99B
:1042B000824602005B0529D511005846FCF71CF820
:1042C000051E37D0019A216900F084F9A389214A9B
:1042D000134080221343A3815246019B2561E818B5
:1042E000D31A3D00BA4620606261A36016E75146CA
:1042F0002A0000F0C1F9236821005B1901982360AE
:10430000FFF78AFB002800D15BE72DE7584600F055
:10431000DBFF051EE0D121695846FFF7C1FD802271
:104320005946A3899343743A1BB20A601EE77B1C6B
:104330001E002FE70C235A4613600C22A35E15E7DC
:1043400001204042C0E6C04600FCFF7FFEFFFF7F29
:10435000FFFFFF7F7FFBFFFFF0B5C646B82388460F
:10436000002600B59B00C7187B68BC685D1E0CD496
:10437000A389012B06D90E22A35E013302D02000AF
:10438000C04706436834013DF2D23F68002FEBD1AD
:10439000300080BCB846F0BDF8B54746CE4680B583
:1043A000B827804689460026BF0047447B68BC6822
:1043B0005D1E0DD4A389012B07D90E22A35E013304
:1043C00003D021004046C84706436834013DF1D27E
:1043D0003F68002FEAD13000C0BCB946B046F8BDF6
:1043E000F03070470048704730090020004870479F
:1043F000300900207047C0467047C0467047C0462D
:104400007047C0467047C0467047C046012070479D
:10441000012070477047C0467047C046F0B5C64699
:1044200000B58B8905000C0096B09A0709D52300CA
:104430004333236023610123636116B080BCB84617
:10444000F0BD0E22895E002929DB6A4602F07EFB60
:10445000002823DBF023019F1B021F40264B8026F0
:104460009C4667447B425F418023DB0098463601CF
:1044700041462800FBF740FF00281CD080221F4B3C
:10448000EB63A3892060134342461BB2A3812061E2
:104490006261002F1ED13343A381CEE7A389002799
:1044A0001B0612D540239846280041460026FBF7FC
:1044B00023FF0028E2D10C22A35E9A05BDD403227B
:1044C000934302221343A381B1E78023DB00984684
:1044D0000026CDE728000E23E15E02F04BFB00280A
:1044E00002D10C22A35ED6E70322A38993430122C3
:1044F00013431BB2CFE7C04600E0FFFFFD3A0000C8
:1045000070B50C001E000E23C95E150096B0002980
:1045100015DB6A4602F01AFB002810DBF022019B33
:10452000120213400D4A8020944663445A4253417C
:1045300033608023DB002B60000116B070BD0C22BD
:10454000A35E002232601B0603D5402300202B60AF
:10455000F3E78023DB0000202B60EEE700E0FFFFA5
:1045600070B5CCB283070DD0531E002A0FD003259F
:1045700004E00130284206D0013B08D30278A24271
:10458000F7D170BD1300032B0CD8002B01D10020F4
:10459000F7E7C31802E001308342F8D00278A24264
:1045A000F9D1EEE7FF2529400D0229430D04074EFE
:1045B0000D43026806496A40511891433142E8D1DF
:1045C000043B0430032BF4D8DFE7C04680808080B2
:1045D000FFFEFEFEF0B5C64600B50F2A41D90327FF
:1045E0000D003E0005430C0003002E402F423DD13C
:1045F0001500103D2D09A8462D01AC4684442768BE
:104600001D001F6067685F60A7689F60E7681034DF
:10461000DF6010336545F2D145460F230C24013588
:104620002D01491913404519144222D08C59AC511F
:1046300004369C1B032CF9D8043B9B0801339B00D8
:10464000ED18C91803231A40561E002A06D000236D
:10465000CC5C1A00EC5401339642F9D180BCB846C8
:10466000F0BD0500561E002AF1D1F7E70500561EE1
:10467000EDE71A00F6E7C046F0B588420AD98B1874
:10468000984207D2531E002A03D0CA5CC254013B91
:10469000FBD2F0BD0F2A0BD80500561E002AF8D019
:1046A0000023CC5C1A00EC5401339642F9D1F0E7B8
:1046B00003270D003E0005430C0003002E402F424F
:1046C0002BD11500103D2D09AC462F013F18256850
:1046D0001D6065685D60A5689D60E5681034DD60FB
:1046E0001D001033BD42F2D165460F230C24013565
:1046F0002D01491913404519144211D08C59AC5160
:1047000004369C1B032CF9D8043B9B0801339B0007
:10471000ED18C91803231A40BFE70500561EBFE76E
:104720001A00BAE7F0B50500830749D0541E002AE5
:1047300045D003000326CAB202E00135013C3ED356
:1047400001332A703342F8D1032C30D9FF220A40BA
:10475000150215432A0415430F2C34D92700103FA6
:104760003F093E01B4461E001A001036664415602B
:1047700055609560D5601032B242F8D101373F01E3
:10478000DB190F270C22274022403C00002A0ED0C4
:104790003E1FB608B400A4461A001C1D644420C283
:1047A000A242FCD103240136B6009B193C40002CE8
:1047B00005D0C9B21C19197001339C42FBD1F0BD60
:1047C00003001400C0E72700E2E7C046C36C70B5E1
:1047D00004000D00002B0AD0A8001B181868002840
:1047E0000ED002681A6000230361C36070BD2122ED
:1047F000042101F0FBFF031EE064EDD10020F5E78A
:104800000126AE40721D01212000920001F0EEFF52
:104810000028F3D045608660E5E7C046002906D051
:104820004B689A00C36C9B181A680A60196070473D
:10483000F0B5C6461F008046002300B50E000D6986
:1048400014310C6801332004000C5043240C5443F1
:10485000C019070CE4190004270C000C24042418C8
:1048600010C19D42EDDC002F08D0B368AB4209DDDA
:104870002B1D9B00F31801355F603561300080BC53
:10488000B846F0BD73684046591CFFF79FFF041EF1
:1048900017D0310033690C319A1C92000C30FFF7AD
:1048A00099FE73689A004346DB6C9B181A68326065
:1048B0001E6026002B1D9B00F31801355F603561DB
:1048C000DCE70022B521024B024801F069FFC04637
:1048D000EC95000084960000F8B54746CE460600E9
:1048E000180080B50C00083009211F00904602F026
:1048F000EFFC092F3BDD012500216D000131A842AD
:10490000FBDC3000FFF762FF011E32D0089B4361E1
:10491000012303614346092B16DC092398460A3418
:1049200047450CDD4346E719FF1A23780A22300079
:10493000303BFFF77DFF01340100BC42F5D1080098
:10494000C0BCB946B046F8BD09239946A1444D46BE
:1049500044442B780A223000303BFFF769FF0135D1
:104960000100A542F5D14446083C4C44D8E700215B
:10497000C7E70022024B0348CE3101F011FFC046C9
:10498000EC950000849600000300020C0020002A31
:1049900001D11B0410301A0E01D108301B021A0F6E
:1049A00001D104301B019A0F01D102309B00002B72
:1049B00002DB01305B0000D570472020FCE7C046D9
:1049C00003680200590707D0D9071ED4990720D5DC
:1049D0005B080360012070470020190401D11B0C03
:1049E0001030FF21194201D108301B0A190701D1EB
:1049F00004301B09990701D102309B08D90702D462
:104A000001305B0803D01360E5E70020E3E72020D6
:104A1000E1E79B0803600220DDE7C046C36C70B588
:104A200004000D00002B0AD05868002815D0026839
:104A30005A600023C36001334561036170BD2122C8
:104A4000042101F0D3FE031EE064EDD1A021002279
:104A5000084B0948490001F0A3FE1C220121200057
:104A600001F0C4FE0028F1D00123436001338360CC
:104A7000DFE7C046EC95000084960000F0B54E4696
:104A80004546DE465746E0B50D691669894614006D
:104A900087B0B54204DB33000C002E0091461D00A8
:104AA000A36877196168BB4200DA0131FFF78EFE17
:104AB0000590002800D1A7E014229446059B00220F
:104AC00063449B46BB005B449A465B465146D345D4
:104AD00003D204C39942FCD88A4614239C46A444BA
:104AE000634604931423B6006644AD009C462B0035
:104AF000E1444B44029399456ED20423039323006F
:104B000015339E4200D27CE0331B153B9B080133DA
:104B10009B00B8460393019608E0000C31D10423B2
:104B20009C46029BE144E3444B4554D94B461868EC
:104B300003041E0C002BF0D0019B5D4600279C4611
:104B4000049C04CC296813041B0C73430804000C58
:104B50001B18D819130C7343090C020C5B189B1813
:104B600002041F0C120C1B04134308C5A445E8D80B
:104B7000634601935B46039A9F504B461868000CAE
:104B8000CDD05B4600271B685C4619003E00049DA3
:104B9000019A2F88090C47437F18BF191B04390459
:104BA0001B0C0B43236008CD61681B0C43430E04B0
:104BB000360C9B193F0CDB191E0C0434AA42E8D8B2
:104BC00001925A460399535004239C46029BE144A8
:104BD000E3444B45AAD847465346002F03DC06E082
:104BE000013F002F03D0043B1A68002AF8D0059B30
:104BF00018001F6107B0F0BCBB46B246A946A046EC
:104C0000F0BDB846019691E75E210022024B0348B1
:104C1000FF3101F0C5FDC046EC9500008496000010
:104C2000F8B5032347461400CE461A0080B50E009F
:104C300007002240234238D1A41025D0BD6C002D9E
:104C40003CD001239846002399464346234208D18D
:104C5000641019D0286800281BD005004346234261
:104C6000F6D02A0031003800FFF708FF002E1AD0D6
:104C7000FA6C736894469B0063441A68641032604F
:104C80001E600600002CE5D13000C0BCB946B0461D
:104C9000F8BD2A0029003800FFF7F0FE4B462860D7
:104CA00005000360DAE70600D2E70F4B013A9200F5
:104CB000D2580023FFF7BCFD0600BDE701213800F4
:104CC000FFF784FD051E07D0084B436101230361F4
:104CD0000023B8640360B4E7A0210022044B054818
:104CE000490001F05DFDC0462098000071020000FF
:104CF000EC95000084960000F0B50C002369454651
:104D0000DE4657464E469846E0B55711B8444346EE
:104D10005D1CA36883461600496883B09D4203DD8D
:104D200001315B009D42FBDC5846FFF74FFD844696
:104D3000002853D0143003000190002F0CDDBF0079
:104D40003A0000211432624402C39342FCD1019B19
:104D50009946B9444B4601932269230091001F22D2
:104D600010001433304081465918324230D001329D
:104D7000121A92460026019F48461A688240324322
:104D800004C7524640CBD6409942F5D8220015328E
:104D90000423914204D30B1B153B9B0801339B005A
:104DA000019AD650002E00D0A846634642461A61AA
:104DB000636860469A005B46DB6C9B181A68226049
:104DC0001C6003B0F0BCBB46B246A946A046F0BD8D
:104DD000019804CB04C09942FBD8E6E7DA2100220F
:104DE000024B0348FF3101F0DBFCC046EC950000AC
:104DF0008496000003690A6930B50500981A934249
:104E000011D1920014351431AB18891801E09D427C
:104E100009D2043B04391A680C68A242F7D0A242B6
:104E200092410120104330BDF0B54E464546DE4666
:104E30005746E0B50B6988461169914683B05C1A04
:104E40008B4200D095E04646890014361432731820
:104E5000521802E09E4200D38FE0043B043A1D68E2
:104E600011688D42F6D000D27EE043465968FFF7C4
:104E7000ADFC002800D18AE043461A69142343445C
:104E80009C46C4601C004B461B6991009B0061441A
:104E90009C4614234F469A46143782445346BC44DA
:104EA0008B46A2461426644600219446424680461C
:104EB0000193935901CF1D042D0C691805042D0C85
:104EC0004D1B010C40461B0C5B1A29145B182D046A
:104ED00019142D0C1B042B4383510436BC42E8D813
:104EE0006246A4464D461C0063464E465D1B153D7A
:104EF00015360023AD08B44500D3AB00019FB8467A
:104F000004274344B44501D30135AF00019DBA44A1
:104F1000AC46BC44D34518D9654657465E4610CFCB
:104F200023041B0C5B181914240C64181B04211493
:104F30001B0C24041C4310C5BE42F0D8310053465C
:104F40000139CB1A9B089B006344002C04D1043B1D
:104F50001968013A0029FAD0026103B0F0BCBB46DF
:104F6000B246A946A046F0BD43460124C84699462C
:104F70007BE7002CF8DB002477E70021FFF726FC15
:104F800000280BD00123036100234361E5E7902152
:104F90000022054B0548890001F002FC0022024B6B
:104FA0000349024801F0FCFBEC95000084960000E8
:104FB000320200000F4B19400F4B9C466144002900
:104FC00004DD00220B001000190070474942002246
:104FD00000230915132904DC802000030841030085
:104FE000F1E7143901201E2902DC80200006C840A8
:104FF0000200E8E70000F07F0000C0FCF8B5060002
:105000004746CE4604691436A4003419231F1D6890
:1050100080B528000F009846FFF7B6FC20210A1A39
:105020003A600A282EDD464523D208235B42984683
:10503000A04443461F680B235B429C4684440B28D4
:105040001CD063469D40C91A3B00CB401C481D4301
:105050002843030046452FD20C3C2068C8406146D7
:105060008F4007433A0010001900C0BCB946B04653
:10507000F8BD030000270B3B0B2817D1104929432B
:105080000B00EFE72F0015390B1ADF400C4999464A
:1050900039430B000027464503D24946083C2768A0
:1050A000CF40153085403D432A00DCE79D40044950
:1050B000002729430B00D5E761468F40D2E7C04661
:1050C0000000F03F70B5012182B015001C00FFF711
:1050D0007DFB061E4FD0230364001B0B640D02D022
:1050E0008022520313430193002D17D101A8FFF72B
:1050F00067FC019B01257361012320303361002C83
:1051000024D0204B9C46069B644424181C60352305
:10511000181A079B1860300002B070BD68460095F1
:10512000FFF74EFC002822D0019D20232A001B1AE5
:105130009A401300C540009A019513437361B5610D
:105140006B1E9D4101353561002CDAD10E4B9C461A
:10515000069B604418600D4BEB189B00F3185869D0
:10516000FFF712FC6D01079B2D1A1D60D3E7009B12
:10517000019D7361E3E70022054B0649064801F0F3
:105180000FFBC046CDFBFFFFCEFBFFFFFFFFFF3F46
:10519000EC9500000A03000084960000F0B5CE46AE
:1051A000474680B585B0884602A98146FFF726FFAD
:1051B00004000D00404603A9FFF720FF02000B008A
:1051C000404649460069096900920193091A49015C
:1051D0008C4602980399401A0100614400290BDDB6
:1051E00009054F193D002000290002F0C3FD05B05C
:1051F000C0BCB946B046F0BD09055B1A0193009AE0
:10520000019BF0E710B50400172809DD00200749CD
:105210000022074B013C03F0AFF9002CF8D110BD80
:10522000C4000448041920686168F8E70000F03FF2
:1052300000002440309700001300013970B54C1174
:105240001169013414338900A400591804198B42E0
:105250000AD2050040CB40C59942FBD88B1A153BBA
:105260009B0801339B00C018844203D9002308C067
:105270008442FCD870BDC0460200036910B51432E8
:10528000481183420ADA9B00D31803E0043B1968F3
:10529000002917D19342F9D8002010BD83420EDDBA
:1052A0001F231C000C400B4209D08300D31819683F
:1052B0000120E140A1401C688C42EED1EAE7830066
:1052C000D318E7E70120E8E7F0B557464546DE4644
:1052D0004E46E0B50C000700904683B0002900D18F
:1052E000A8E045460B35FBF7C9FA162D70D81025F6
:1052F0001023A84570D82600083E716803220800D4
:10530000904381460096984200DB77E0C24A30180D
:1053100093469268824200D1CAE0426801900092AE
:10532000012292465046009A824301989446834651
:10533000DC44624650465268024200D071E00320CD
:10534000009ACB4682439446E3449B4550DA52464A
:105350000A4211D103213268B21A924652688A4336
:105360006146511849448B46994200DB78E04A4433
:1053700093469A4200DB78E041463800FAF7BCFFDA
:105380008046002820D07368B4460093012300991A
:10539000020099430B00083A6344934200D1F7E0BE
:1053A0004A46043A242A00D9F7E003002100132AD0
:1053B00000D9C8E00A681A604A685A608A689A6028
:1053C00021003800FEF76CFD3800FBF75FFA07E0BC
:1053D00007239D432B1E8CDA0C233B600023984649
:1053E000404603B0F0BCBB46B246A946A046F0BD5D
:1053F000D946019AD3689268D3609A604B465B1B8A
:105400000F2B1CD801214A4673680B40134373606D
:105410004E447368194371603800FBF737FAA046B1
:10542000DEE70842A8D103213268B21A92465268D8
:105430008A439CE71100FAF75FFF8046D0E701201E
:105440007268711902400343154375604B604E4406
:1054500073680831184370603800FEF721FDDBE700
:10546000019AD3689268D3609A6053465246DB68CB
:1054700092685646D3609A604A46043A0836242A0F
:105480006BD83300132A09D95346216899606168A3
:10549000D9601B2A00D98EE0083410332268D9461F
:1054A0001A6062685A60A26834009A605646A5E79E
:1054B0005068032290430D3282469446CA44AC445D
:1054C000E24552DACA0700D556E73168721A03215D
:1054D000924652688A4310180100494400918C4555
:1054E00000DD44E753465246DB689268D3609A6019
:1054F00008234A465344043A9846242A75D8132A66
:1055000008D95346216899606168D9601B2A71D80F
:105510000834103322681A6062685A60A2689A6080
:10552000534659195B469960009B38005A1B01236A
:105530001A434A605246526813401D4353465D6009
:10554000FBF7A4F94CE721680160616841601B2A00
:1055500027D82100083308312CE72100300034001F
:10556000FFF78AF8D946564648E75B460098A046BA
:105570004119996053465A1B01231A434A604168F6
:105580000B401D43456038000091FBF77FF927E78A
:1055900003225B689343994430E72100FFF76CF8DE
:1055A0000EE7A1688160E168C160242A0CD0210067
:1055B00010331031FEE6A1681961E1685961242AAF
:1055C0000BD01034183369E7226921000261020010
:1055D0006069183118335061ECE622699A615246CD
:1055E00061692033D161183458E721001800FFF7B2
:1055F00043F895E7A1681961E1685961242A02D04E
:105600001034183386E722699A6152466169203363
:10561000D16118347EE7C04600000020F0B5C646D0
:105620000E6804000D0000B5002E17D03768002F5B
:1056300010D03B689846002B08D01968002901D08B
:10564000FFF7ECFF41462000FEF72AFC390020005E
:10565000FEF726FC31002000FEF722FC2900200086
:10566000FEF71EFC80BCB846F0BDC046264B70B5A8
:105670001B680500834246D0C16C002911D000266A
:105680008C59002C07D0210024682800FEF708FC64
:10569000002CF8D1E96C0436802EF1D12800FEF7F9
:1056A000FFFB296C002902D02800FEF7F9FBA42398
:1056B0005B00EC58002C0BD02E004D36FF36B44268
:1056C00006D0210024682800FEF7EAFBA642F8D1A4
:1056D000696D002902D02800FEF7E2FBAB6B002BBE
:1056E00011D0EB6B28009847B8239B00EC58002C96
:1056F00009D02168002902D02800FFF78FFF210080
:105700002800FEF7CDFB70BD1004002070B514001A
:1057100000252560104D4B000A005B08AB4219DCE8
:105720001D00054316D00D4E0025314207D1002241
:105730000B4B02F021FF0A004B005B08363D094E7F
:105740001B15B44663445B192360074B1A40074B93
:105750001343190070BDC046FFFFEF7F0000F07FCC
:105760000000504302FCFFFFFFFF0F800000E03FFE
:1057700070B50C000E25495F01F090FA002803DB9C
:10578000236D1B18236570BDA389024A1340A381B2
:10579000F9E7C046FFEFFFFF00207047F8B50C00A7
:1057A0001F000C23C95E05001600CB050AD40A4B66
:1057B000320019402800A1810E23E15E3B0000F079
:1057C000DBFFF8BD0E23E15E0022022301F030FA78
:1057D0000C23E15EEBE7C046FFEFFFFF70B50C0066
:1057E0000E25495F01F024FA431C06D08023A289CC
:1057F0005B011343A381206570BDA389014A134057
:10580000A381F9E7FFEFFFFF10B50E23C95E01F09A
:105810003BF810BDF0B50C00044303000700A407DB
:1058200012D1032A10D9144CA44667460D68134CB4
:105830001E002C19AC433C421BD10433043A1F0018
:1058400004313560032AF0D80024BE1806E00D5D4F
:10585000013A3D55B31A0134002D02D0002AF6D189
:10586000F0BD0021002AFBD0197001339E42FBD10C
:10587000F6E71F00E8E7C04680808080FFFEFEFE5E
:10588000F8B54E464546DE4657464B6EE0B5914666
:1058900006000D009B0433D513689A469368002BCD
:1058A0002CD052461268904652465268934697084A
:1058B00019D0002402E00134A74212D04246A300CE
:1058C000D15830002A0001F0D9F8431CF3D14A46E0
:1058D000002393605360F0BCBB46B246A946A04685
:1058E000F8BD4B469B685A4603218A439B1A4A4699
:1058F000936008229446E244002BD2D10020E6E7D0
:10590000FEF7B0FBE3E7C046936810B5002B02D06A
:10591000FFF7B6FF10BD00205360FBE7F0B5DE4691
:1059200057464E464546E0B5BFB08A4693461C00F2
:1059300001900893002804D0836B0293002B00D1C0
:1059400027E253465B6EDB0700D537E153460C2157
:10595000595E53469A89930500D42BE180239B011D
:105960001A4209D10B43524651469381496E964AD9
:105970000A4051464A669AB213073DD553461B6901
:10598000002B39D01A2313400A2B43D015AB1293A6
:1059900000235D46D3461493139315AE0C930B93DB
:1059A0000E930D9305932B78002B00D1A4E12C00CE
:1059B00004E063780134002B00D1D9E0252BF8D125
:1059C000671BAC4200D0D7E02378002B00D193E1D5
:1059D000002310AAD370013B0293002300276278B2
:1059E000651C049301351300203B5A2B00D9F1E0CC
:1059F00076499B00CB589F4651460198FCF77CFEA8
:105A00005346002801D000F044FE9A891A2313401F
:105A10000A2BBBD153460E215B5E002BB6DB5346EF
:105A20005B6EDB0703D4930501D400F008FE23006E
:105A30005A465146019800F059FE059074E1019BC9
:105A400018009846FEF7CEFC436818000D93FAF74D
:105A5000B1FF0E9004004046FEF7C4FC83680B9330
:105A6000002C01D000F0F7FC2A78BBE720232A782D
:105A70001F43B7E710231F43089ABB0600D47BE1FE
:105A8000072307329A4301339C46944463460893A4
:105A90005368126807930692002B01DA00F089FC24
:105AA000029BB946013309D080239F43069A079B86
:105AB0001100B946194301D100F04FFC069B079C29
:105AC000002C00D048E3092B00D945E36322069B54
:105AD00025A930338B540123039310ABB7249C4684
